:020000040800F2
:1000000040240020D5010008D9010008DB010008C8
:10001000DD010008DF010008E10100080000000028
:10002000000000000000000000000000E3010008E4
:10003000E501000800000000E7010008E9010008F0
:10004000EB010008EB010008EB010008EB010008E0
:10005000EB010008EB010008EB010008EB010008D0
:10006000EB010008EB010008EB010008EB010008C0
:10007000EB010008EB010008EB010008EB010008B0
:10008000EB010008EB010008EB010008EB010008A0
:10009000EB010008EB010008EB010008EB01000890
:1000A000EB010008EB010008EB010008EB01000880
:1000B000EB010008B9080008EB010008EB0100089B
:1000C000EB010008EB010008EB010008EB01000860
:1000D000EB010008ED060008EB0100082909000803
:1000E000EB010008EB010008EB010008EB01000840
:1000F000EB010008EB010008EB010008EB01000830
:10010000EB010008EB010008EB010008EB0100081F
:10011000EB010008EB010008EB010008EB0100080F
:10012000EB010008EB010008EB010008EB010008FF
:1001300000F002F800F03FF80AA090E8000C8244BA
:100140008344AAF10107DA4501D100F034F8AFF297
:10015000090EBAE80F0013F0010F18BFFB1A43F0A5
:10016000010318476833000088330000103A24BFA9
:1001700078C878C1FAD8520724BF30C830C144BF0C
:1001800004680C607047000000230024002500264E
:10019000103A28BF78C1FBD8520728BF30C148BFEA
:1001A0000B607047642902F06584002070471FB51A
:1001B0001FBD10B510BD02F081FE1146FFF7F7FF1D
:1001C00000F03EF802F09FFE03B4FFF7F2FF03BC1D
:1001D00000F07EFA08480047FEE7FEE7FEE7FEE78C
:1001E000FEE7FEE7FEE7FEE7FEE7FEE70348044919
:1001F000024A044B704700003101000840140020FF
:10020000402400204014002010B541F61F41092071
:1002100000F061FB4FF41651242000F095FB2748B5
:100220000021017002F0BDF810BD2548006818B922
:1002300001202249087002E0002020490870704720
:10024000092000F0ECF94FF4E131482000F089FA80
:10025000482000F081F800F0F7FA00F0BDFBFFF74E
:10026000D3FF18A002F0D2FB22A002F0CFFB23E0C4
:10027000FFF7DBFF114802F0D2F9002000F0D7FBB6
:100280000446022C05D125A002F0C0FB022002F09A
:1002900098F8042C05D128A002F0B8FB002002F049
:1002A00090F8C82000F090F82A48006808B90120AA
:1002B00000E0002027490860DAE700000000002085
:1002C000940123422D2D2D2D2D2D2D2D20BBFAD621
:1002D000C7D4C62DD0ADD2E9D2C6D6B24C4544B2B1
:1002E000E2CAD4CAB5D1E92D2D2D2D2D2D2D2D2DC0
:1002F0002D0D0A004B4559313A4169724C696E6BBC
:10030000C1ACBDD3C4A3CABD09204B45595F5550EC
:100310003AB8B4CEBB0D0A0D0A0000005749464951
:10032000BDF8C8EB4169724C696E6BC1ACBDD3C4FA
:10033000A3CABD0D0A00000057494649B8B4CEBB58
:10034000A3ACC7EBD6D8D0C2C5E4D6C3C1ACBDD32D
:100350000D0A0000948121424FF0E021096921F04B
:1003600004014FF0E0221161C21700EB5272C2F398
:10037000C702234B1A701946097801EB4102C2EB00
:10038000C1114FF6FF7202EAC1011E4A1180704787
:1003900001461B4A12784A434FF0E0235A6100227B
:1003A0009A6101221A6100BF4FF0E022106900F04B
:1003B00001021AB100F48032002AF5D000224FF079
:1003C000E0231A619A61704701460E4A12884A4337
:1003D0004FF0E0235A6100229A6101221A6100BFA6
:1003E0004FF0E022106900F001021AB100F48032EF
:1003F000002AF5D000224FF0E0231A619A6170477D
:100400000200002004000020A64A0A400243A64B36
:100410001A6070470146072323EA01021202A24B29
:100420001B1D18684FF6FF031840A04B18431043DC
:100430009D4B1B1D186070472DE9F041074688460B
:1004400014461D462846FFF7E5FFC5F1040007FAEC
:1004500000F60F20284100EA0800064306F00F06C8
:10046000E21704EBD2625211920002F1E022D2F8BC
:1004700000212146E31704EBD3635B11A4EB431C7B
:10048000012303FA0CF31A432046E31704EBD3636A
:100490005B119B0003F1E023C3F800218448005D59
:1004A00040EA061082490855BDE8F08170B504465F
:1004B0000B46CE1701EB9676C6F38700CE1701EBFD
:1004C0009676B610A1EB8606B606350E794B9B697B
:1004D00043F00103774EB3614FEAB63353F820304F
:1004E0000F26AE40B343744E46F82030334653F8DF
:1004F000203004FA05F61E436F4B43F820606F4B23
:100500001B6801268E4033436C4E336002F00103BA
:1005100043B16A4B0C331B6801268E403343674E50
:100520000C36336002F0020343B1644B08331E689B
:1005300001238B401E43614B08331E6070BD00B524
:1005400000205C490861C86014204861002088616F
:10055000C8610846006840F001000860084640682D
:1005600057490840534948600846006855490840C3
:10057000504908600846006820F48020086008465A
:10058000406820F4FE0048600020886000214FF0A1
:100590000060FFF739FF00BD30BF704772B670478B
:1005A00062B6704700B540480830006840F004006B
:1005B0003D49083108603F48C06940F080503D49DE
:1005C000C8614148406840F480703F49486008462F
:1005D000006840F0040008600846006840F002002F
:1005E0000860FFF7D9FF00BD3048001D2E49091DE6
:1005F00008607047014649062E4A926942F001029E
:100600002C4B9A612C4A083A526822F0E0622A4B3D
:10061000083B5A601A4652680A435A60704730B520
:1006200004460025FFF78BFF2248006840F4803025
:100630002049086000BF1F480068400C0028FAD01D
:100640004FF480601B494860A01EC4B20846406851
:1006500040EA844048600846406840F48030486082
:100660001A48006840F032001849086011480068D4
:1006700040F080700F49086000BF0E480068400ECF
:100680000028FAD00B48406840F002000949486051
:1006900005E008484068C0F3870505F00305022D12
:1006A000F7D130BD80FFFF1F08ED00E00000FA0524
:1006B00000E400E000100240080001400004014096
:1006C0000000FFF8FFFFF6FE00700040002002402F
:1006D00000BF704700BF564A128802F04002002A4D
:1006E000F9D0C2B2524B1B1D1A807047504909887D
:1006F00001F0200111B34E49091D0988C8B24D49C6
:10070000098801F40041C9B94A49098801F48041C6
:1007100061B10A2803D00021464A118020E04549F2
:10072000098841F40041434A118019E00D2806D19F
:100730004049098841F480413E4A118010E03D491A
:100740000988C1F30D013C4A50543A490988491CB3
:10075000384A118011460988C72901DD002111801E
:1007600070472DE9F05F05460E46300102F024FD8A
:100770008146324905FB01F002F01EFD82464946E2
:1007800002F038FC0746384602F0F6FC84B22046F8
:1007900002F012FD8346394602F0EEFD82464FF02C
:1007A000834102F01DFD814602F0E6FC80464FF6D3
:1007B000FF7000EA041404EB080084B2204880694A
:1007C00040F004001E4988610846806940F480407A
:1007D00088611C48006820F47F601A490860084658
:1007E000006840F40B6008601548C06840F4804021
:1007F0001349C8600846C06820F48040C8600C48AF
:1008000008300480001D008842F20C0108430849AA
:100810000C3108800846008840F020000880022340
:10082000252203210846FFF707FEBDE8F09F0000E0
:10083000003801400C0000202000002040420F0042
:1008400000100240040801401848806940F0080088
:10085000164988610846806940F040008861144864
:10086000006820F47000124908600846006840F4EF
:10087000401008600E480C30006840F020000C4921
:100880000C3108600B48006820F4700009490860CA
:100890000846006840F44010086006480C300068C4
:1008A00040F0200003490C310860704700100240FE
:1008B000000C01400018014010B51948008800F0F4
:1008C000010008B100F081F91548008820F001000E
:1008D0001349088010BD70B505460C461148C06923
:1008E00040F002000F49C8610D481C300580001F10
:1008F00004800B48001F008840F001000849091FD0
:10090000088007481038008840F001000449103979
:10091000088002231D2203210120FFF78DFD70BDF9
:10092000100400400010024008B52748008800F07D
:10093000200040B12448001D0088C0B20090012171
:10094000684600F0CCFA08BD70B505460C461F4855
:10095000806940F008001D4988611D48006820F446
:100960007F401B4908600846006840F40B4008605F
:100970001648C06940F480201449C86108460069DF
:1009800040F4802008610846006920F48020086156
:1009900010486843B0FBF4F00B4908310880081D8B
:1009A000008842F20C01084307490C3108800846D0
:1009B000008840F0200008800223272203211846E7
:1009C000FFF73AFD70BD00000048004000100240F3
:1009D000040C014040420F003A48806940F0040096
:1009E000384988610846806940F04000886136488F
:1009F000006820F00F00344908600846006840F0A5
:100A00000800086031480068314908402F490860F3
:100A1000084600682F4908432C4908602B480C30D1
:100A2000006840F01C0029490C310860704710B57F
:100A3000044614B10120284908702748007858B3AB
:100A40002648006858B12548001F006838B123487F
:100A50000838006818B12248006801281CD10A2013
:100A6000FFF7B2FC00201C4908701C48006808B958
:100A7000012010BD1948001F006808B90220F8E7DE
:100A800016480838006808B90320F2E714480068DF
:100A9000012815D10420ECE71048006801280FD187
:100AA0000E48001F006801280AD10C480838006869
:100AB000012805D10A48006810B9012006490870CC
:100AC0000020D6E700100240000801400018014055
:100AD000FF00F0FF008808000E00002010012342F4
:100AE000000121422DE9FF4706460D4692460027A8
:100AF000A846A9462C4606B125B94FF0FF3004B0F0
:100B0000BDE8F087002748E0701CC05D112840D286
:100B1000DFE800F01E1F203F3F212223243F3F3FFC
:100B20003F252F2B090098F8000047490870084618
:100B3000017846A001F06AFF43480078012803D1FC
:100B400000204949086002E001204749086021E08F
:100B500020E01FE01EE01DE01CE01BE01AE099F819
:100B6000001042A001F052FF14E043A001F04EFF3C
:100B700010E0D4F80700A17962792379CDE9003239
:100B8000CDE90210E378A278218840A001F03EFF71
:100B900000E000BF00BF781CC7B23078B842B3DCB9
:100BA0000020ACE7012080F3138800BF00BF42485B
:100BB000006800F4E06041490843001D3E490860B8
:100BC000BFF34F8F00BF00BFFEE73D480068401CE9
:100BD0003B49086070473A480068704700B5FFF726
:100BE000F4FF00BD08B5002000900121684600F028
:100BF00076F908BD10B502460B4600210AB9481E19
:100C000010BD00211BE0505C2E4C208000BF2D4801
:100C1000001F008800F040000028F8D002290DD302
:100C2000505CFF280AD15520264C208000BF254863
:100C3000001F008800F040000028F8D0491C9942AD
:100C4000E1D31846DCE70000000000204576743A46
:100C5000204556454E545F4C45445F4F4E4F4646E7
:100C6000202564200A000000940123425253534976
:100C70002025640A000000005452414E5350415256
:100C8000454E545F44415441200A000057494649AB
:100C90005F4E5450203A205B25642D25642D256439
:100CA00020253032643A253032643A253032645D92
:100CB0005B25645D200A00000CED00E00000FA05F1
:100CC000100000200448004010B504461CB9F9A0EB
:100CD00001F09CFE10BDE0686060E068A06000BFAD
:100CE000F8E710B504461CB9F2A001F08FFE10BD64
:100CF0000020E0606060A060206000BFF7E710B5F2
:100D000004462CB9EBA001F081FE4FF0FF3010BD7E
:100D10002068FCE710B504462CB9E6A001F076FE89
:100D20004FF0FF3010BD6068A168884201D10020FB
:100D3000F8E76068A168884203D2A0686168401A39
:100D4000F0E72046FFF7DBFF6168A268891A401AC6
:100D5000E8E770B504462CB9D6A001F057FE4FF075
:100D6000FF3070BD2046FFF7CAFF05462046FFF75B
:100D7000D1FF281AF5E72DE9F04104460F46164643
:100D800000252CB9CBA001F041FE681EBDE8F08122
:100D90002FB9CFA001F03AFE4FF0FF30F6E76068C0
:100DA000A168884214D22046FFF7B4FFB04201D9AF
:100DB000304602E02046FFF7ADFF054661682A464F
:100DC000384601F02FFF6068284460602846DDE760
:100DD0002046FFF794FF6168E268891A401AB04222
:100DE0000AD9354661682A46384601F01BFF60681B
:100DF000284460602846C9E72046FFF780FF616805
:100E0000E268891A451A61682A46384601F00AFFE5
:100E1000E0686060721B79192046FFF7ACFF05445B
:100E20002846B3E72DE9F04104460F461546002653
:100E30002CB9AEA001F0EAFD701EBDE8F0812FB91B
:100E4000B0A001F0E3FD4FF0FF30F6E72046FFF7DA
:100E500080FFA8420AD82046FFF77BFF8046414624
:100E6000AEA001F0D3FD4FF0FF30E6E76068A16867
:100E700088422AD82046FFF742FFA168E268891A13
:100E8000461AB54213D8A0682A46394601F0CAFE70
:100E9000A0682844A0602046FFF731FFE1680844BD
:100EA000A168884201D1E068A0602846C5E7A06833
:100EB0003246394601F0B6FEE068A060AA1BB919B7
:100EC0002046FFF7AFFF3044B7E7A0682A4639460F
:100ED00001F0A8FEA0682844A0602846ADE770B5E0
:100EE00004460D46002624B992A001F08FFD701E25
:100EF00070BD2A4621469848FFF794FF0646AE4249
:100F000005D096A001F082FD4FF0FF30F0E73046AB
:100F1000EEE72DE9F04104460D460027002604B116
:100F200035B9294694A001F071FD0020BDE8F0819B
:100F3000022603E0A05D3844C7B2761C681EB042AA
:100F4000F8D83846F2E701B581B0694601AA507871
:100F5000087010784870BDF800000CBD0146080606
:100F600001F47F4240EA022001F47F0240EA1220AD
:100F700040EA116070472DE9F04104460E46002515
:100F80000027A8462CB98AA001F040FD681EBDE8E4
:100F9000F08100250AE0675D701B401E14F8008098
:100FA00004F80580701B401E27546D1CB5EB560FCE
:100FB000F1D30020EBE710B503460020541AB4FB30
:100FC000F3F010BD10B50346002002FB031010BD66
:100FD0002DE9F04704460E461546002731462846BF
:100FE00002F0D4F98146214602F004F8804602F06E
:100FF000C3F807463846BDE8F0872DE9F0470446B8
:101000000E4615460027284602F0D6F881462146AE
:1010100002F0E6F88046314601F08AFF074638467E
:10102000BDE8F087024612B102F0070028B908298E
:1010300001D8002070470120FCE702F00700C0F152
:101040000800884201D30020F4E70120F2E710B540
:1010500004462CB961A001F0D9FC4FF0FF3010BD5F
:10106000002020606060FF20207060700020F6E7A4
:1010700070B504460D462CB922A001F0C7FC4FF014
:10108000FF3070BD40F2BE315F4801F042FE2A469B
:1010900021465D48801C01F0C5FD5C48A0F82D5B31
:1010A000012180F87617FFF796FD5849C1F82F0BFC
:1010B0000020E6E74552524F523A20696E7075742F
:1010C000207262206973204E554C4C0A00000000CB
:1010D0004552524F523A20696E70757420646174A3
:1010E00061206973204E554C4C0A00004552524F06
:1010F000523A20726220697320656D707479200AFB
:10110000000000004552524F523A20646174612041
:10111000697320656D707479200A00004552524F42
:10112000523A206E6F206D656D6F727920256420B4
:101130000A0000004552524F523A2067697A5075B2
:1011400074446174612062756620697320656D70F6
:101150007479200A00000000600C00204552524FB4
:10116000523A204661696C656420746F2072625740
:1011700072697465200A00004552524F523A206746
:10118000697A50726F746F636F6C53756D202C2089
:1011900062756620697320656D707479206F7220A6
:1011A0006C656E206572726F72202564200A0000E3
:1011B00067697A427974654F7264657245786368CD
:1011C000616E6765204572726F72202C20496C6CCD
:1011D0006567616C20506172616D0A004552524F23
:1011E000523A2067697A50726F746F636F6C48650A
:1011F0006164496E69742068656164206973206563
:101200006D707479200A00005D080020E80000205D
:101210002DE9FC5F05460C46164699460C9F4FF09B
:10122000000AD346002001908046B9F1000F00D09B
:1012300037B9FAA001F0EAFB4FF0FF30BDE8FC9FA0
:101240003A464946684601F0EDFC012F0CD9394673
:101250006846FFF790FEB0F1FF3F05D1FBA001F01B
:10126000D5FB4FF0FF30E9E731462046FFF7DAFEC5
:101270008246BAF1000F0CD11DF8050004F00701F9
:101280000841C6F10802FF211141084040EA080860
:1012900021E0BAF1010F1ED1681C1DF8000004F016
:1012A0000701C1F10801711AC1F10802FF211141C2
:1012B00000EA010B1DF8050004F007010841019048
:1012C00004F00700C0F108010BFA01F040EA080839
:1012D000019848EA00084046B0E72DE9F05F05466E
:1012E0000E4690461C460A9F4FF0000AD346D14650
:1012F00034B9E3A001F08AFB4FF0FF30BDE8F09F66
:1013000041463046FFF78EFE8146B9F1000F07D106
:10131000605D06F0070107FA01F1084360551EE021
:10132000B9F1010F1BD1F8B206F00701C1F10801B4
:1013300040FA01FA06F00700C0F10801FF20084159
:1013400000EA070B681C205C40EA0A00691C605434
:10135000605D06F007010BFA01F1084360550020BB
:10136000CCE7F8B505460C4616460DB104B12EB9CA
:10137000CDA001F04BFB4FF0FF30F8BD287800F016
:10138000010098B110212278601C81542078401C03
:10139000207001206B1C0246002100900846FFF7D8
:1013A00037FF08B1012000E0002030700020E4E7A2
:1013B00070B504460D46002604B12DB9C5A001F054
:1013C00025FB4FF0FF3070BD28782178884203D08C
:1013D000CAA001F01BFB01263046F4E738B50546EC
:1013E0000C4605B12CB9CBA001F010FB4FF0FF303B
:1013F00038BD00202070287823460122002100906B
:101400000846FFF76AFF01212046FFF7B4FD0020E0
:10141000EEE72DE9F04704460E4617461D46A04666
:101420004FF0000998F808900CB107B135B9C5A084
:1014300001F0ECFA4FF0FF30BDE8F0871221CD4803
:1014400001F067FCB9F1010F06D0B9F1020F11D01C
:10145000B9F1050F3FD11EE0C64A3632C54904F145
:101460000900FFF77EFF0120C34908700027002014
:10147000286031E0BF493831481EFFF7AFFF30B96F
:10148000BD4890F86B0B38700120286002E04FF0E7
:10149000FF30D1E720E0A6F10A0204F10901B748C4
:1014A00001F0C0FBA6F10A00B349C1F86D070F2196
:1014B000B14890F8332B00F634308154AE4890F8A0
:1014C000330B401CAC4981F8330B03200870002714
:1014D0000020286000E000BF00BF0020ACE72DE93D
:1014E000F04786B00446884616460027BA46B946F5
:1014F000254614B1B8F1000F07D1A1A001F086FA7A
:101500004FF0FF3006B0BDE8F087CEB96846FFF770
:101510009EFD2079401CC0B28DF8040060798DF8E2
:1015200005000520FFF70FFDADF802000921684610
:10153000FFF7EFFC8DF80800EA464FF0090925E0B7
:1015400003A8FFF784FD2879401CC0B28DF8100075
:1015500068798DF81100B11D88B2FFF7F4FCADF881
:101560000E00287A401CC0B28DF814003246414665
:101570000DF1150001F056FB0B2103A8FFF7C9FC84
:101580008DF816000DF10C0A4FF00B094946504634
:10159000FFF730FB0746002F04DA4A4639468448F5
:1015A00001F034FA3846ADE7FEB505460E4617465B
:1015B000002426B97FA001F029FA601EFEBD68460E
:1015C000FFF745FD05208DF804006B4890F8711772
:1015D000D0F87107401C684AC2F87107C8B28DF88C
:1015E00005008DF808500720FFF7ADFCADF80200AC
:1015F0003A4631460DF1090001F014FB0B21684613
:10160000FFF787FC8DF80A000B216846FFF7F2FA16
:101610000446002C01DA2146E0E0E2E067697A4402
:1016200065636F6D7072657373696F6E56616C750B
:1016300065204572726F72202C20496C6C65676161
:101640006C20506172616D0A0000000067697A4485
:1016500065636F6D7072657373696F6E56616C75DB
:10166000652067697A427974654F7264657245785E
:101670006368616E6765204572726F72200A0000B0
:1016800067697A436F6D707265737356616C7565C7
:10169000204572726F72202C20496C6C6567616CFA
:1016A00020506172616D0A0067697A44617461500B
:1016B0006F696E74324576656E74204572726F7212
:1016C000202C20496C6C6567616C20506172616DE3
:1016D0000A00000067697A436865636B5265706F42
:1016E0007274204572726F72202C20496C6C656791
:1016F000616C20506172616D0A00000076616C754A
:10170000654C45445F4F6E4F6666204368616E6767
:1017100065640A0067697A44617461506F696E7428
:1017200073325265706F72744461746120457272D5
:101730006F72202C20496C6C6567616C205061725F
:10174000616D0A0067697A50726F746F636F6C49DC
:10175000737375656450726F63657373204572723D
:101760006F72202C20496C6C6567616C205061722F
:10177000616D0A001B0C0020E80000209F0400207F
:1017800067697A50726F746F636F6C4973737565B4
:10179000644461746141636B204572726F72202CE6
:1017A00020496C6C6567616C20506172616D0A0044
:1017B0008834000867697A5265706F727444617486
:1017C00061204572726F72202C20496C6C656761D4
:1017D0006C20506172616D0A00000000F4A001F0FD
:1017E00015F90B216846FFF743FC2046E6E610B5E5
:1017F0000446F7492046FFF7DBFD012812D1F5A08A
:1018000001F004F9F249491C2046FFF7E7FD28B929
:101810000122EF49491C0420FFF7C6FEF348217856
:1018200080F86A1BFFF7D7F9F14990FBF1F201FB51
:10183000120090B9EFA001F0E9F8E549491C2046F3
:10184000FFF7CCFD28B90122E149491C0420FFF72C
:10185000ABFEE648217880F86A1B10BD2DE9FE4FEB
:1018600080460E4617464FF0000B0020029081463E
:101870008246002534460090B8F1000F01D006B131
:1018800037B9E2A001F0C2F84FF0FF30BDE8FE8F9B
:101890004046FFF73FFA00F0FF0ABAF1000F02D10D
:1018A0004FF0FF30F2E74FF000095DE0012201A99F
:1018B0004046FFF760FA8346BBF1000F52D0DF4885
:1018C0000078FF281FD19DF80400FF281BD1DC48B9
:1018D000007848B9FF20207060700220D949088044
:1018E0000120D749087034E0D6480088042830DD4C
:1018F000D4480088A8422CD0FF20207060700220BD
:10190000D049088025E0CD480078FF2803D19DF814
:10191000040055281DD0CA480078012819D19DF827
:101920000400C84909886054C6480088401CC5495D
:1019300008800846008804280BDD0094009C60881D
:10194000FFF701FB001D85B2BE480088A84200D108
:101950000CE09DF80400B9490870BB480078401CB1
:10196000B949087009F10109D1459FDB00BFB548AD
:101970000088042823DDB3480088A8421FD1B1485D
:1019800001882046FFF7C5FA0290AE480088401E45
:10199000215C029881420FD12A462146304601F04F
:1019A00041F93D800020A6490870A6490880A64953
:1019B0000870A249087069E76FF0010066E701202E
:1019C00064E710B50024894890F8760700B910BD87
:1019D0009EA001F01BF88548B0F82D1B00F277702F
:1019E000FFF708F904468148B0F82D0BA04202D059
:1019F0009EA001F00BF8FFF7EEF87C49C1F82F0B21
:101A000000BFE4E770B504469F4D34B9AFF60C1043
:101A100000F0FCFF4FF0FF3070BD2879401C2179A9
:101A2000884205D140F2BE319748801E01F071F91D
:101A30000020F1E73EB50446002524B993A000F04C
:101A4000E5FF681E3EBD20680090606801909DF82B
:101A50000400401CC0B28DF804000520FFF773FAA3
:101A6000ADF8020009216846FFF753FA8DF8080027
:101A700009216846FFF7BEF80546002D03DA29461E
:101A80004BA000F0C3FF2846DCE710B5574890F89C
:101A90007607012829D1554890F8750702281EDAE3
:101AA000FFF799F85149D1F82F1B401AB0F5FA6F9A
:101AB0001BD9FFF790F804464C4890F87537D0F8DA
:101AC0002F2B21467CA000F0A1FFFFF77AFF4748AB
:101AD00090F87507401C454981F8750705E040F20C
:101AE000BE316948801E01F014F910BD30B59DB0BB
:101AF000044600252CB97AA000F088FF681E1DB0AE
:101B000030BD6846FFF7A3FA02208DF80400607923
:101B10008DF805007EA103C9CDE902017FA103C9AB
:101B2000CDE9040180A103C9CDE9080181A103C960
:101B3000CDE90601202282A10AA801F0B8F82022EE
:101B400088A10DF1520001F06DF80020CDF84A0097
:101B5000CDF84E009DF851008DF851009DF85100D0
:101B600040F002018DF851100020FFF7ECF9ADF8BC
:101B700048006F20FFF7E7F9ADF8020073216846CF
:101B8000FFF7C7F98DF8720073216846FFF732F846
:101B90000546002D03DA294605A000F037FF284648
:101BA000ADE7FEB504460E46002504B9ECE0F0E0D2
:101BB0004552524F523A207561727420777269749F
:101BC00065206572726F72202564200A0000000093
:101BD000520C00206368616E6765642C207265702A
:101BE0006F727420646174610A000000E8000020D4
:101BF000C0270900496E666F3A2036303053207294
:101C000065706F727420646174610A0067697A504C
:101C1000726F746F636F6C4765744F6E655061636C
:101C20006B6574204572726F72202C20496C6C6554
:101C300067616C20506172616D0A00001C00002019
:101C4000180000201A0000201D0000205761726E4D
:101C5000696E673A2074696D656F75742C207265C2
:101C600073656E642064617461200A004552524FAE
:101C7000523A20726573656E6420646174612065F8
:101C800072726F720A0000005F0800204552524FC6
:101C9000523A2067697A50726F746F636F6C436F4A
:101CA0006D6D6F6E41636B20646174612069732098
:101CB000656D707479200A005761726E696E673ABB
:101CC00067697A50726F746F636F6C526573656E7B
:101CD00064446174612025642025642025640A0021
:101CE00067697A50726F746F636F6C47657444658F
:101CF00076696365496E666F204572726F72202C3B
:101D000020496C6C6567616C20506172616D0A00DE
:101D1000303030303030303400000000303030307F
:101D2000303030320000000030333031303130316B
:101D3000000000003033303130313030000000001E
:101D40003534333263633864653135663438663927
:101D5000393663636161386366663761613966325B
:101D60000000000039303135346434346334633476
:101D700034626334623138373466333561623938FE
:101D80003334323600000000F9A000F03FFE681E38
:101D9000FEBD6846FFF75BF912208DF804006079FC
:101DA0008DF805000620FFF7CEF8ADF802008DF89B
:101DB00008600A216846FFF7ACF88DF809000A218F
:101DC0006846FEF717FF0546002D04DA2946AFF2F4
:101DD000202000F01BFE2846DAE770B504460026F6
:101DE000254624B9EDA000F011FE701E70BDF1482B
:101DF000A9680160E9684160298A0181A97C817232
:101E0000A0F66D31B1F86D0BFFF79DF8EA49A1F826
:101E10006D0BD1F8740BFFF7A1F8E749C1F8740B0B
:101E20000E21E54890F8572B00F658308154E248CF
:101E300090F8570B401CE04981F8570B04200870BC
:101E40000020D3E710B5FEF7C6FE044600BFFEF73C
:101E5000C2FE001BB0F5167FF9D9FEF7A3FE10BD38
:101E600010B504462CB9D5A000F0D0FD4FF0FF30DE
:101E700010BD2089FFF767F82081DC480078C0F3A7
:101E80008000217AC1F3800188425AD0207AC0F3C1
:101E9000800000282BD0207A00F0010080B10021C2
:101EA000C54890F8452B00F646308154C24890F85A
:101EB000450B401CC04981F8450BCDA000F0A6FDA4
:101EC000207AC0F3400000283BD00121BA4890F8A6
:101ED000452B00F646308154B74890F8450B401C1E
:101EE000B54981F8450BCAA000F090FD29E0207AA1
:101EF00000F0010080B10021AF4890F8452B00F6BA
:101F000046308154AC4890F8450B401CAA4981F8F2
:101F1000450BB7A000F07AFD207AC0F3400080B1F5
:101F20000221A54890F8452B00F646308154A2487E
:101F300090F8450B401CA04981F8450BBBA000F070
:101F400065FDAA480078C0F3C000217AC1F3C00142
:101F500088422ED0207AC108A448008861F3C300CB
:101F6000A2490880207AC0F3C00088B103219248BA
:101F700090F8452B00F6463081548F4890F8450B79
:101F8000401C8D4981F8450BAFA000F03FFD10E0EB
:101F90000421894890F8452B00F646308154864844
:101FA00090F8450B401C844981F8450BAEA000F029
:101FB0002DFD8E480078C0F30010217AC1F3001186
:101FC00088422ED0207A01098848008861F30410E5
:101FD00086490880207AC0F3001088B10521764830
:101FE00090F8452B00F646308154734890F8450B25
:101FF000401C714981F8450BA3A000F007FD10E0DB
:1020000006216D4890F8452B00F6463081546A4809
:1020100090F8450B401C684981F8450BA2A000F0E0
:10202000F5FC72480078C0F34010217AC1F34011EA
:1020300088422ED0207A41096C48008861F345100F
:102040006A490880207AC0F3401088B107215A48B5
:1020500090F8452B00F646308154574890F8450BD0
:10206000401C554981F8450B98A000F0CFFC10E0CA
:102070000821514890F8452B00F6463081544E48CF
:1020800090F8450B401C4C4981F8450B96A000F098
:10209000BDFC56480088C0F3C0202189C1F3C0218F
:1020A00088422ED02089C10A5048008861F3CB2095
:1020B0004E4908802089C0F3C02088B10B213E48DA
:1020C00090F8452B00F6463081543B4890F8450B7C
:1020D000401C394981F8450B8BA000F097FC10E0BB
:1020E0000C21354890F8452B00F646308154324893
:1020F00090F8450B401C304981F8450B89A000F051
:1021000085FC3A480088C0F300302189C1F30031D2
:1021100088421CD02089010B3448008861F30C30C0
:10212000324908802089C0F3003088B10921224853
:1021300090F8452B00F6463081541F4890F8450B27
:10214000401C1D4981F8450B7EA000F05FFC0AE1B0
:102150000A21194890F8452B00F64630815416485C
:1021600090F8450B401C144981F8450BF8E000003D
:1021700067697A50726F746F636F6C4572726F72B9
:10218000436D64204572726F72202C20496C6C651F
:1021900067616C20506172616D0A00004552524FB8
:1021A000523A204E545020697320656D7074792026
:1021B0000A000000550C0020E800002067697A50F2
:1021C000726F746F636F6C4D6F64756C655374617F
:1021D000747573204572726F72202C20496C6C6587
:1021E00067616C20506172616D0A00001E00002062
:1021F0004F6E426F617264696E673A20536F667406
:102200004150206F7220576562206D6F64650A002F
:102210004F6E426F617264696E673A204169724C19
:10222000696E6B206D6F64650A0000004F6E426F2F
:10223000617264696E673A2053746174696F6E20CD
:102240006D6F64650A000000576946692073746108
:102250007475733A20696E2062696E64696E6720D6
:102260006D6F64650A0000005769466920737461E8
:102270007475733A206F75742062696E64696E6755
:10228000206D6F64650A00005769466920737461A8
:102290007475733A20636F6E6E6563746564207243
:1022A0006F757465720A000057694669207374611E
:1022B0007475733A20646973636F6E6E65637465D9
:1022C0006420726F757465720A0000005769466970
:1022D000207374617475733A20636F6E6E656374F6
:1022E0006564206D326D0A00576946692073746118
:1022F0007475733A20646973636F6E6E6563746599
:1023000064206D326D0A000057694669207374615C
:102310007475733A2061707020636F6E6E656374BC
:102320000A00000057694669207374617475733A36
:10233000206E6F2061707020636F6E6E6563740A2B
:102340000000000057694669207374617475733A20
:1023500020696E2074657374206D6F64650A0000D7
:10236000F5A000F053FB0D21FA4890F8452B00F63C
:1023700046308154F74890F8450B401CF54981F8E8
:10238000450B2089C0F3022081F86C0B084690F8B9
:102390006C1BF1A000F03AFB0220EE49087000200F
:1023A00066E510B540F26C70EF490860EF48C86010
:1023B0000846FEF789FC40F67831E64800F0A9FCB3
:1023C00010BD30B587B005460024052D7ED2DFE86C
:1023D00005F003316193C10001A8FEF738FE0B2020
:1023E0008DF80800DB4890F87117D0F87107401C91
:1023F000D84AC2F87107C8B28DF809000520FEF767
:10240000A2FDADF80600092101A8FEF782FD8DF8B6
:102410000C00092101A8FEF7EDFB0446002C04DAAC
:102420002146AFF6740000F0F1FA092101A8FEF789
:102430001FFEC1E004A8FEF70AFE09208DF8140073
:10244000C44890F87117D0F87107401CC14AC2F80F
:102450007107C8B28DF815008DF818500620FEF7E8
:1024600072FDADF812000A2104A8FEF752FD8DF8A6
:1024700019000A2104A8FEF7BDFB0446002C04DA6B
:102480002146AFF6D40000F0C1FA0A2104A8FEF7F5
:10249000EFFD91E004A8FEF7DAFD09208DF81400A5
:1024A000AC4890F87117D0F87107401CA94AC2F8DF
:1024B0007107C8B28DF815008DF818500620FEF788
:1024C00042FDADF812000A2104A800E070E0FEF71A
:1024D00020FD8DF819000A2104A8FEF78BFB0446A5
:1024E000002C04DA2146AFF6381000F08FFA0A21EA
:1024F00004A8FEF7BDFD5FE001A8FEF7A8FD1320CC
:102500008DF80800934890F87117D0F87107401CB7
:10251000904AC2F87107C8B28DF809000520FEF78D
:1025200012FDADF80600092101A8FEF7F2FC8DF8B6
:102530000C00092101A8FEF75DFB0446002C04DA1B
:102540002146AFF6941000F061FA092101A8FEF7C8
:102550008FFD31E001A8FEF77AFD15208DF8080007
:102560007C4890F87117D0F87107401C794AC2F87E
:102570007107C8B28DF809000520FEF7E4FCADF83C
:102580000600092101A8FEF7C4FC8DF80C00092102
:1025900001A8FEF72FFB0446002C04DA2146AFF613
:1025A000F01000F033FA092101A8FEF761FD03E005
:1025B0006FA000F02BFA00BF00BF204607B030BD6F
:1025C0003EB500246846FEF742FD17208DF8040052
:1025D000604890F87117D0F87107401C5D4AC2F846
:1025E0007107C8B28DF805000520FEF7ACFCADF808
:1025F000020009216846FEF78CFC8DF808000921CD
:102600006846FEF7F7FA0446002C03DA21465EA07E
:1026100000F0FCF909216846FEF72AFD3EBDF0B541
:10262000ADF2747D04460025002700200190009043
:10263000002634B95DA000F0E9F9681E0DF2747D42
:10264000F0BDFFF722FA01AA4249491C4648FFF7AC
:1026500005F90546002D6DD15EA000F0D7F93D4E7D
:10266000761C30790D2833D00EDC07282CD006DC00
:10267000012816D0032818D0062852D12FE00A28A6
:102680002ED00C284DD12CE0142839D004DC0F2892
:102690002CD0112845D132E0162823D0182840D15B
:1026A00035E03046FFF722FA43E06B4602AABDF858
:1026B00004102848401CFEF7ACFE20B902A93046A1
:1026C000009AFEF70CFF34E03046FFF7B3F930E034
:1026D0003046FFF7AFF93046FFF7C2FB29E000BFF5
:1026E00000BF00BF3046FFF78DF922E03046FFF70C
:1026F000A1F93DA000F08AF9FFF7A4FB19E018E06A
:102700003046FFF77FF93DA000F080F911E0304638
:10271000FFF778F93046FFF760FB40A000F076F94C
:1027200007E002213046FFF73CFA42A000F06EF9C4
:1027300000BF99E08AE00000576946692073746120
:102740007475733A206F75742074657374206D6F9F
:1027500064650A00E8000020525353492069732041
:102760002564200A00000000600C0020700C00208E
:102770004552524F523A204366674D6F646520655B
:1027800072726F72210A00004552524F525B4E54D2
:10279000505D3A20756172742077726974652065A6
:1027A00072726F72202564200A00000047697A77F0
:1027B00069747348616E646C65204572726F722033
:1027C0002C20496C6C6567616C20506172616D0AE8
:1027D00000000000476574204F6E65205061636BF8
:1027E0006574210A000000007265706F72743A4DC2
:1027F0004355207265626F6F74210A0041636B203C
:1028000050524F44554354494F4E5F4D4F4445201D
:1028100073756363657373200A00000041636B2066
:102820004745545F55545420737563636573732033
:102830000A0000004552524F523A20636D642063F3
:102840006F6465206572726F72210A0015F1020FC4
:102850000AD15A4E01213046FFF7A3F958A000F0E3
:10286000D5F86FF00100E9E65448401E00780128D1
:1028700006D0022814D0032823D004283FD12DE00D
:1028800000204E49491E0870012201F66931A1F16C
:102890003600FEF727F91221504800F03AFA2EE0F0
:1028A00000204649491E0870012201F66C31A1F151
:1028B0002700FEF717F912214848123000F029FAD4
:1028C0001DE000203D49491E08700846D0F86D27DC
:1028D00000F2B7314148FEF705F910E00020374912
:1028E000491E08700B2201F66D31A1F11600FEF7AA
:1028F000F9F812213948243000F00BFA00BF00BF6C
:102900002046FEF774FF002098E62DE9F041ADF572
:102910006E7D06460F464FF0000846B930A000F025
:1029200075F84FF0FF300DF56E7DBDE8F0816C4617
:10293000B81D85B2FF2004F8010B04F8010B281222
:1029400004F8010B04F8015B052004F8010B1B4897
:10295000401E90F87117D0F87107401C174A521E9C
:10296000C2F8710704F8011B002004F8010B04F8F9
:10297000010B062004F8010B3A4631460DF109001F
:1029800000F050F9291D6846FEF7C3FA0146E81C1D
:102990000DF80010291D6846FEF72CF98046B8F1A5
:1029A000000F04DA4146AFF6F85000F02FF8291D69
:1029B0006846FEF75DFB0020B5E70000E900002057
:1029C0004552524F523A20636865636B2073756DB0
:1029D000206572726F72210A000000001B0C00203B
:1029E0005B4572726F725D2067697A7769747350A4
:1029F0006173737468726F756768446174612045B0
:102A000072726F72200A0000704700000FB4044910
:102A100010B503AA029800F0FBF910BC5DF814FB96
:102A20000800002070B5044685690068C10601D51C
:102A3000302600E02026C00707D070BDD4E9012170
:102A400030469047206A401C20626D1EF6D570BD4E
:102A500070B5044685690078C00707D170BDD4E918
:102A6000012120209047206A401C20626D1EF6D56F
:102A700070BD00002DE9F04106460024106875295C
:102A8000314616A510D0AFF30080002802DA40428C
:102A900013A507E031688A0701D512A502E04907AE
:102AA00004D511A5012401E0AFF3008000210A2222
:102AB00006F1240709E0B0FBF2FCB0FBF2F302FBE5
:102AC0001C00303078541846491C0028F3D12346A6
:102AD0002A463046BDE8F04100F041B90000000050
:102AE0002D0000002B000000200000002DE9F05F09
:102AF000894604464FF0000ADFF824B1FB44C0F8D1
:102B000020A02046E168884700287DD0252806D0EF
:102B1000D4E901219047206A401C2062F1E700259A
:102B20005F462046E16888472028064607DB312EAD
:102B300005D2B81910F8200C08B10543F1E7A80731
:102B400001D525F00405C4F81CA00027C4F818A07E
:102B50002A2E09D0304600F0E3F938B304EB870899
:102B6000303EC8F8186019E059F8041B204604EB01
:102B700087029161E1688847012F064618D1E06914
:102B8000002820DA25F020051DE0D8F8180000EB19
:102B9000800006EB40003038C8F818002046E16895
:102BA0008847064600F0BCF90028EED1012F0AD074
:102BB0002E2E08D12046E16888477F1C0646022F4A
:102BC00045F02005C4DBA069002803DA404245F047
:102BD0000105A061E80701D025F01005A6B1A6F116
:102BE0004100192802D8203645F400654A4631468E
:102BF000204625604D46FDF7D5FA60B1012807D083
:102C0000ED1D25F0070000E007E000F1080978E776
:102C100005F1040975E730467AE7206ABDE8F09FC0
:102C200076090000032A40F2308010F0030C00F017
:102C3000158011F8013BBCF1020F624498BF11F8F6
:102C400001CB00F8013B38BF11F8013BA2F10402AF
:102C500098BF00F801CB38BF00F8013B11F0030327
:102C600000F02580083AC0F0088051F8043B083A8B
:102C700051F804CBA0E80810F5E7121D5CBF51F82D
:102C8000043B40F8043BAFF30080D20724BF11F8A7
:102C9000013B11F801CB48BF11F8012B24BF00F80C
:102CA000013B00F801CB48BF00F8012B704710B57D
:102CB000203AC0F00B80B1E81850203AA0E8185034
:102CC000B1E81850A0E81850BFF4F5AF5FEA027CF5
:102CD00024BFB1E81850A0E8185044BF18C918C064
:102CE000BDE810405FEA827C24BF51F8043B40F805
:102CF000043B08BF7047D20728BF31F8023B48BFEA
:102D000011F8012B28BF20F8023B48BF00F8012B27
:102D100070474FF000020429C0F0128010F0030C3D
:102D200000F08A80CCF1040CBCF1020F18BF00F84F
:102D3000012BA8BF20F8022BA1EB0C0100F07CB8FE
:102D40005FEAC17C24BF00F8012B00F8012B48BFCB
:102D500000F8012B704770477047704770472DE9A6
:102D6000F0470D4699469246044600F12408016852
:102D7000880604D5E06921F01001216000E00120FF
:102D8000A84201DD471B00E00027A1697A1902EB88
:102D90000900081AA0612078C00602D42046FFF777
:102DA00041FE002608E0D4E901211AF80600904708
:102DB000206A401C761C20624E45F4DB2078C00659
:102DC0000AD52046FFF72EFE06E0D4E90121302087
:102DD0009047206A401C2062381EA7F10107F4DCEE
:102DE00007E0D4E9012118F805009047206A401C4B
:102DF0002062281EA5F10105F3DC2046FFF728FE1E
:102E00002078000602D50220BDE8F0870120FBE70C
:102E1000074B70B50D467B4400F039F80446284650
:102E200000F048F810B14FF0FF3070BD204670BD83
:102E3000BBD8FFFF4FF0000200B5134694469646FC
:102E4000203922BFA0E80C50A0E80C50B1F12001BD
:102E5000BFF4F7AF090728BFA0E80C5048BF0CC06B
:102E60005DF804EB890028BF40F8042B08BF7047C9
:102E700048BF20F8022B11F0804F18BF00F8012B3B
:102E80007047000001694A1C02610878704700B56C
:102E90008FB0CDE901310021059105497944CDE993
:102EA000031011466846FFF721FE0FB000BD000079
:102EB000E5FFFFFF007B00F080007047754600F0E3
:102EC0002BF8AE4605006946534620F007008546BC
:102ED00018B020B5FDF78AF9BDE820404FF0000694
:102EE0004FF000074FF000084FF0000B21F00701F2
:102EF000AC46ACE8C009ACE8C009ACE8C009ACE835
:102F0000C0098D46704710B50446AFF300802046D7
:102F1000BDE81040FDF758B900487047DC130020A9
:102F200030380A2801D20120704700207047000085
:102F300090EA010F48BF81F0004100F12E82421A51
:102F40003CBF801A89184FEAD0524FF07F4C1CEAE0
:102F5000410FA2EBD15318BF9CEA026F00F03B80F7
:102F60004FF0004C4CEA00204CEA012121FA03FC0E
:102F700010EB0C0C1ED202F1FF325FEA1C2040EB7A
:102F8000C25038BF70471CF07F0F4FEA400C18BF8B
:102F9000BCF17F4F38BF7047C3F12003994008BF91
:102FA00020F00100BCF17F4F38BF7047A0F1C04056
:102FB00000F0DDB94FEA3C00000A40EBC25028BFE8
:102FC0001CF0FF0F4FEA400CE6D018BFBCF17F4F5A
:102FD00038BF7047EAE79CEA026F05D010EA5C0F41
:102FE00008BF00F00040704710B500F07AF900BF4C
:102FF00064FBBE3E4FF47F0C1CEAD0121EBF1CEADD
:10300000D11392EA0C0F93EA0C0F00F0858090EA3E
:10301000010F48BF42F4807240F4000C41F40000FC
:103020002CF07F4120F07F4000B58142A2EB0302EB
:103030000FF2081CACEB504EC0F100009EF800E00F
:103040004FEA4E0E00FB0EFC38BF49004FEA2C1C25
:1030500002F5FA020CFB0EF34FEACE1E4FEA112CDA
:103060004FEAC1210EEB635E42EB22420EFB0CFCE9
:103070004FEA1C5300FB03114FEA112C4FEA0131B8
:103080000EFB0CFC4FEADC4C00FB0C11C14228BFCC
:1030900009184CEB03335DF804EB10EB410143EBF3
:1030A000C250B2F57C0F38BF704729D512F0F00F2F
:1030B0001CBF00F1C04000F00040704700818283D7
:1030C0008485868788898B8C8D8E8F919293959637
:1030D00097999A9C9D9FA0A2A3A5A7A8AAACAEB0C1
:1030E000B2B3B5B7B9BCBEC0C2C5C7C9CCCED1D4C6
:1030F000D7D9DCDFE2E6E9ECF0F3F7FAFE000000F6
:103100004FEA400C0CF1807CBCF17E4F28BF704729
:10311000B0F1C04000F02BB990EA010F0CEAD113D6
:1031200048BF42F48072624538BF634507D213F44A
:103130007F0F16D080EA010000F00040704710B504
:1031400000F0CFF8097EFC3E00F005B880EA0100EF
:1031500000F00040704780EA010000F0004000F0FD
:1031600006B912F47F0F04BF0248704780EA0100DD
:1031700000F0FDB80000C07FC10DD1F19E0206DB5A
:103180004FEA002343F0004323FA02F07047004265
:1031900007D54FEA4001B1F1FE4F02D24FF00000D7
:1031A000704710B500F09DF84992248000207047C8
:1031B0006FEA200070470000B0FA80F310FA03F2C3
:1031C000C3F19D030AD0D90501EB1220530638BF85
:1031D000704700F1010008BF20F0010070470000B7
:1031E0004FF47F0C1CEAD0121EBF1CEAD11392EAE6
:1031F0000C0F93EA0C0F00F0478090EA010F48BFD4
:1032000042F480724FF0004C4CEA00204CEA01215D
:1032100002EB0302A0FB0113A2F50002002918BF74
:1032200043F001035B0028BF4FEA330342EB224225
:103230005FEA132C4CEBC2502EBFBCEB436FB2F5D0
:103240007C0F70474FEA036CBCF1004F08BF20F0C1
:103250000100B2F57C0F38BF70470BD582F0FF023A
:1032600012F5803FC8BF704700F1C040D8BF00F0E2
:103270000040704700F5000C5FEA4C0C48BF7047F7
:10328000B0F1C04000F073B890EA010F0CEAD1131E
:1032900048BF42F48072624538BF634504D280EA79
:1032A000010000F00040704710B500F01AF800BFB0
:1032B0008900013E00F007B800F009B85FEA410C50
:1032C0005FEA1C6C08D080EA010000F050B85FEAA9
:1032D000400C5FEA1C6CF6D14FF00040A0F5800076
:1032E00070470EF1020E2EF0030E5EF8044B2442DE
:1032F00004D44FEA4102B2F17F4F11D84FEA4003A4
:10330000B3F17F4F0CD80ED14FEAD07CB2F17F4F92
:103310000CEB4C0C0CF1020C08BF4CEBD17C04E024
:103320004FF0080C01E04FEAD17C0CEB4C0324FA7F
:1033300003F404F00704B4F1040C06D20EEB840C81
:10334000BDE810404CF0010C6047DFE80CF00708C6
:1033500002024FF00040A0F5800010BD0846420078
:1033600018BFD2F1807288BF00F0004010BDFF216D
:1033700041EAD050C005704780F0004090EA010F4C
:103380007FF5DDAD81F0004100F007B890EA010F54
:1033900048BF81F000413FF5D2AD421A04D882F017
:1033A0000042A0EB020011444FEAD0524FF07F4C94
:1033B0001CEA410FA2EBD15318BF9CEA026F4AD01E
:1033C0004FF0004C4CEA00204CEA012121FA03FCAA
:1033D000B0EB0C0C0FD412F0FE0F36D05FEA4C00AD
:1033E0001DD5001240EBC25038BF70471CF03F0F94
:1033F00018BF70470BE0A2F101025FEA1C2040EB0E
:10340000C25038BF70471CF07F0F18BF7047C3F120
:103410002003994014BF401E20F00100704780082F
:103420004FEA122308BF7047B0FA80FCA2EB0C02EF
:10343000CCF1280C60FA0CF093EA122F04BF00EBD9
:10344000C25070474FEAC3707047130A5FEADC103E
:1034500008BF7047F6E79CEA026F04D010EA5C0FE1
:1034600008BF0020704710B5FFF73BFF40DFF63E76
:1034700081F00040704704000008000000000000D8
:1034800000020001000010004552524F523A2067DE
:10349000697A50726F746F636F6C4973737565648A
:1034A0004461746141636B20756172742077726945
:1034B0007465206572726F72202564206461746186
:1034C0004C656E202564200A00000000EC340008E2
:1034D00000000020200000006C0100080C350008EE
:1034E00020000020202400008801000800000000C7
:1034F00000000000000000000000010000000000CB
:0C350000000000000000000000000000BF
:0400000508000131BD
:00000001FF
